:020000040800F2
:1000000000000220710E0008B1040008B3040008CB
:10001000B5040008B7040008B90400080000000097
:10002000000000000000000000000000BB04000809
:10003000BD04000800000000BF040008C10400085F
:10004000C10E0008C10E0008C10E0008C10E000854
:10005000C10E0008C10E0008C10E0008C10E000844
:10006000C10E0008C10E0008C10E0008C10E000834
:10007000C10E0008C10E0008C10E0008C10E000824
:10008000C10E0008C10E0008C10E0008C10E000814
:10009000C10E0008C10E0008C10E0008C10E000804
:1000A000C10E0008C10E0008C10E0008C10E0008F4
:1000B000C10E0008C10E0008C10E0008C10E0008E4
:1000C000C10E0008C10E0008C10E0008C10E0008D4
:1000D000C10E0008C10E0008C10E0008C10E0008C4
:1000E000C10E0008C10E0008C10E0008C10E0008B4
:1000F000C10E0008C10E0008C10E0008C10E0008A4
:10010000C10E0008C10E0008C10E0008C10E000893
:10011000C10E0008C10E0008C10E0008C10E000883
:10012000C10E0008C10E0008C10E0008C10E000873
:10013000C10E0008C10E0008C10E0008C10E000863
:10014000C10E0008C10E0008C10E0008C10E000853
:10015000C10E0008C10E0008C10E0008C10E000843
:10016000C10E0008C10E0008C10E0008C10E000833
:10017000C10E0008C10E0008C10E000800000000FA
:08018000C10E0008C10E0008C9
:1001880053B94AB9002908BF00281CBF4FF0FF31F6
:100198004FF0FF3000F00CB8ADF1080C6DE904CE5B
:1001A80000F0B8FEDDF804E0DDE9022304B0704792
:1001B800704700BF10B5054C237833B9044B13B111
:1001C8000448AFF300800123237010BD0C00002009
:1001D80000000000C811000808B5034B1BB1034913
:1001E8000348AFF3008008BD0000000010000020A5
:1001F800C811000830B587B0002401940294039414
:100208000494059400940F4B1A6B42F008021A6389
:100218001B6B03F008030093009B0B4D22464FF421
:100228007E41284600F048FD4FF47E4301930123A8
:1002380002930394049401A9284600F055FC07B0E2
:1002480030BD00BF00380240000C024070B594B0C9
:100258003022002108A800F055FE002403940494DD
:1002680005940694079401941A4B1A6C42F0805234
:100278001A641B6C03F080530193019B0294164B84
:100288001A6842F480421A601B6803F480430293A0
:10029800029B0225089501260B9610230C930E95B8
:1002A8000F94082310933223119312950423139368
:1002B80008A800F021F90F230393049505944FF43F
:1002C800805306930794314603A800F05DFB14B0F1
:1002D80070BD00BF003802400070004038B500F023
:1002E80075FDFFF7B3FFFFF785FF002445E02046C3
:1002F80000F04AF80246234D4FF40071284600F0FA
:10030800DBFC204600F055F802464FF48061284691
:1003180000F0D2FC204600F060F802464FF400617D
:10032800284600F0C9FC204600F061F802464FF468
:100338008051284600F0C0FC204600F077F80246BD
:100348004FF40051284600F0B7FC204600F07EF834
:1003580002464FF48041284600F0AEFC204600F0EB
:100368008CF802464FF40041284600F0A5FC4FF4F3
:10037800167000F057FD0134E4B2092CB7D90024F7
:10038800B5E700BF000C02406FEA900280F001035D
:1003980002F001021340C0F34002134300EA900246
:1003A80002F001021343C0F3C000184300D100203B
:1003B80070476FEA900303F001026FEA500180F082
:1003C800010301F001010B40134300EA500000F063
:1003D8000100184300D10020704760EA50035BB267
:1003E80043EAA00010F0010000D001207047C0F3DC
:1003F800C00C6FEA900280F0010302F0010203EAE8
:10040800020141EA0C0102EA60020A43C0F340011A
:100418000B401343DBB2C0F3800222EA50021040C3
:10042800184340B2012800D0002070476FEA9003BB
:1004380080F0010203F00103C0F3400010401A42AB
:1004480002D108B900207047012070476FEA500CAC
:1004580080F0010101F001030CF001021140C0F32A
:10046800800202EA0C020A4303EA90031343C0F332
:10047800C000184300D100207047420822EA9002C9
:1004880002F00103C0F3800222EA50021A43C0F3CB
:10049800C0031A4380F0010303F0010303EA90004C
:1004A800104300D1002070477047FEE7FEE7FEE7E3
:1004B800FEE770477047704708B500F0A1FC08BD1B
:1004C80082B0002100910B4B5A6C42F480425A646E
:1004D8005A6C02F480420092009A01911A6C42F020
:1004E80080521A641B6C03F080530193019B02B085
:1004F800704700BF00380240002800F0DA8170B56C
:1005080082B00446036813F0010F3BD09F4B9B68F1
:1005180003F00C03042B2CD09C4B9B6803F00C03BA
:10052800082B21D06368B3F5803F4FD0B3F5A02FD7
:1005380052D0964B1A6822F480321A601A6822F454
:1005480080221A606368002B50D000F065FC0546D5
:100558008E4B1B6813F4003F14D100F05DFC401B68
:100568006428F5D90320ABE1884B5B6813F4800F4E
:10057800D8D0864B1B6813F4003F03D06368002B68
:1005880000F09981236813F0020F54D07F4B9B68C9
:1005980013F00C0F3ED07D4B9B6803F00C03082B27
:1005A80033D0E368002B68D0794B01221A6000F041
:1005B80033FC0546754B1B6813F0020F54D100F04D
:1005C8002BFC401B0228F5D9032079E16F4A1368F8
:1005D80043F480331360B5E76C4B1A6842F4802209
:1005E8001A601A6842F480321A60ABE700F014FC13
:1005F8000546664B1B6813F4003FC3D000F00CFCA3
:10060800401B6428F5D903205AE1604B5B6813F45A
:10061800800FC6D15D4B1B6813F0020F03D0E3684F
:10062800012B40F04A81594A136823F0F8032169E5
:1006380043EAC1031360236813F0080F42D06369CB
:100648006BB3534B0122C3F8802E00F0E5FB05463F
:100658004E4B5B6F13F0020F34D100F0DDFB401BF3
:100668000228F5D903202BE1484A136823F0F80340
:10067800216943EAC1031360DDE7454B00221A6094
:1006880000F0CAFB0546414B1B6813F0020FD2D09D
:1006980000F0C2FB401B0228F5D9032010E13C4BB7
:1006A8000022C3F8802E00F0B7FB0546374B5B6F7E
:1006B80013F0020F06D000F0AFFB401B0228F5D95B
:1006C8000320FDE0236813F0040F77D02F4B1B6C39
:1006D80013F0805F33D1002301932C4B1A6C42F046
:1006E80080521A641B6C03F080530193019B01250F
:1006F800284B1B6813F4807F23D0A368012B34D0C8
:10070800052B38D0214B1A6F22F001021A671A6F95
:1007180022F004021A67A368002B3DD000F07CFB8E
:1007280006461A4B1B6F13F0020F46D100F074FBFC
:10073800801B41F288339842F3D90320C0E000259A
:10074800D6E7144A136843F48073136000F064FB1F
:100758000646104B1B6813F4807FCED100F05CFB7B
:10076800801B0228F5D90320AAE0084A136F43F03A
:1007780001031367CFE7054B1A6F42F004021A67AB
:100788001A6F42F001021A67C5E700BF003802403D
:10079800000047420070004000F03EFB06464F4B09
:1007A8001B6F13F0020F08D000F036FB801B41F2DC
:1007B80088339842F3D9032082E0E5B9A369002B76
:1007C8007DD0464A926802F00C02082A51D0022BCA
:1007D80017D0434B00221A6600F01EFB04463F4B1D
:1007E8001B6813F0007F42D000F016FB001B0228A4
:1007F800F5D9032064E0394A136C23F0805313645D
:10080800DCE7374B00221A6600F006FB0546334B3F
:100818001B6813F0007F06D000F0FEFA401B022888
:10082800F5D903204CE0E369226A1343626A43EA7C
:100838008213A26A5208013A43EA0243E26A43EA8F
:100848000263264A5360264B01221A6600F0E4FA36
:100858000446224B1B6813F0007F06D100F0DCFA37
:10086800001B0228F5D903202AE0002028E00020F8
:1008780026E0012B26D0194B9B6803F48001E2691E
:10088800914221D103F03F02216A8A421ED1616A56
:1008980047F6C0721A408A421AD103F44032A16A5C
:1008A8008A4217D103F07063E26A934214D10020A0
:1008B80006E001207047012002E0012000E000204E
:1008C80002B070BD0120FBE70120F9E70120F7E73E
:1008D8000120F5E70120F3E70120F1E700380240A5
:1008E8000000474208B5254B9B6803F00C03042B16
:1008F8003FD0082B3FD1214B5A6802F03F025B687A
:1009080013F4800F12D01D4B5968C1F388111C488D
:100918000023A1FB0001FFF733FC184B5B68C3F30E
:10092800014301335B00B0FBF3F025E0134B59683A
:10093800C1F3881C4FEA4C11B1EB0C006EEB0E0EA4
:100948004FEA8E1343EA90638101091A63EB0E03A1
:10095800DB0043EA5173C90011EB0C0C43F10003AF
:10096800990200234FEA8C2041EA9C51FFF708FCCA
:10097800D3E7034800E0034808BD00BF0038024041
:1009880040787D010024F400002800F09B8070B5B9
:100998000D4604464F4B1B6803F00F038B4208D2E9
:1009A800CBB24C4A1370136803F00F038B4240F02C
:1009B8008B80236813F0020F17D013F0040F04D0B4
:1009C800454A936843F4E0539360236813F0080F93
:1009D80004D0414A936843F4604393603E4A936865
:1009E80023F0F003A1680B439360236813F0010F11
:1009F80032D06368012B21D09A1E012A25D9364AA4
:100A0800126812F0020F61D033498A6822F003029B
:100A180013438B6000F000FA06462F4B9B6803F0E7
:100A28000C036268B3EB820F16D000F0F5F9801B57
:100A380041F288339842F0D9032042E0264A1268EE
:100A480012F4003FE0D101203BE0234A126812F083
:100A5800007FD9D1012034E01E4B1B6803F00F033F
:100A6800AB4207D9EAB21B4B1A701B6803F00F039D
:100A7800AB422DD1236813F0040F06D0164A9368B1
:100A880023F4E053E1680B439360236813F0080FE5
:100A980007D0114A936823F46043216943EAC103EC
:100AA8009360FFF71FFF0C4B9B68C3F303130B4ABC
:100AB800D35CD8400A4B18600A4B186800F060F9FC
:100AC800002070BD012070470120FAE70120F8E7F7
:100AD8000120F6E7003C024000380240E01100081F
:100AE800080000200400002000230F2B00F2DA8009
:100AF800F0B583B03AE0072200E00022AA40324372
:100B08000234694D45F82420684A14686FEA0C02DB
:100B180024EA0C054E6816F4803F01D04CEA04051F
:100B2800624C2560646802EA04054E6816F4003FCA
:100B380001D04CEA04055D4C6560A46802EA04052E
:100B48004E6816F4801F01D04CEA0405574CA56086
:100B5800E46822404D6815F4001F01D04CEA0402F5
:100B6800524CE26001330F2B00F29A8001229A4026
:100B78000C6804EA020C32EA0404F3D14C68651EDE
:100B8800012D03D9112C01D0122C12D185685E00D9
:100B98000324B44025EA0405CC68B4402C4384609F
:100BA800456825EA02054C68C4F300129A402A43B6
:100BB8004260C5684FEA430E032404FA0EF4E24388
:100BC80025EA04058C6804FA0EF42C43C4604C68CA
:100BD800022C01D0122C0FD1DD08083550F82570F1
:100BE80003F00704A6000F24B44027EA04070C69A1
:100BF800B4403C4340F82540046814404A6802F079
:100C0800030202FA0EF2224302604A6812F0805F81
:100C1800A8D000220192264A546C44F480445464BB
:100C2800526C02F480420192019A9C08A51C1E4A4B
:100C380052F8256003F0030295000F22AA4026EA25
:100C480002061C4A90423FF458AF02F58062904277
:100C58001AD002F58062904218D002F58062904264
:100C680016D002F58062904214D002F5806290425C
:100C780012D002F58062904210D002F58062904254
:100C88003FF439AF082239E7012237E7022235E776
:100C9800032233E7042231E705222FE706222DE756
:100CA80003B0F0BD704700BF00380140003C014070
:100CB80000380240000002400AB18161704709040F
:100CC80081617047074AD36823F4E0631B041B0C57
:100CD800000200F4E060034343F0BF6343F40033D1
:100CE800D360704700ED00E000B5194BDB68C3F333
:100CF8000223C3F1070CBCF1040F28BF4FF0040C0A
:100D080003F1040EBEF1060F18D9033B4FF0FF3E66
:100D18000EFA0CFC21EA0C0199400EFA03F322EAC0
:100D28000303194300280BDB0901C9B200F1604035
:100D380000F5614080F800135DF804FB0023E5E747
:100D480000F00F000901C9B2024B1954F4E700BFC3
:100D580000ED00E014ED00E00138B0F1807F0BD227
:100D68004FF0E0235861054AF02182F82310002053
:100D7800986107221A6170470120704700ED00E072
:100D880010B504460E4B18784FF47A73B3FBF0F3A2
:100D98000C4A1068B0FBF3F0FFF7DEFF68B90F2CC0
:100DA80001D901200AE0002221464FF0FF30FFF769
:100DB8009BFF054B1C60002000E0012010BD00BF18
:100DC80000000020080000200400002008B50B4B9C
:100DD8001A6842F400721A601A6842F480621A6053
:100DE8001A6842F480721A600320FFF76BFF002034
:100DF800FFF7C6FFFFF764FB002008BD003C024078
:100E0800034A1168034B1B780B441360704700BFFB
:100E18002800002000000020014B1868704700BF20
:100E28002800002038B50446FFF7F6FF0546B4F160
:100E3800FF3F02D0044B1B781C44FFF7EDFF401B1B
:100E4800A042FAD338BD00BF00000020054BD3F8FC
:100E5800882042F47002C3F888204FF000629A603C
:100E6800704700BF00ED00E0DFF834D0002103E058
:100E78000C4B5B58435004310B480C4B42189A42B8
:100E8800F6D30B4A02E0002342F8043B094B9A428E
:100E9800F9D3FFF7DBFF00F011F8FFF71FFA7047EF
:100EA8000000022000120008000000200C000020B2
:100EB8000C0000202C000020FEE7000070B50D4D4E
:100EC8000D4C641BA4100026A64209D10B4D0C4CF6
:100ED80000F076F9641BA4100026A64205D170BD67
:100EE80055F8043B98470136EEE755F8043B984718
:100EF8000136F2E7F8110008F8110008F8110008A7
:100F0800FC11000802440346934200D1704703F8DD
:100F1800011BF9E72DE9F04F099E88468E461546D4
:100F280004461946002B40F0C7804245B2FA82F7C2
:100F380046D94FB1C7F1200C08FA07F320FA0CFC88
:100F4800BD404CEA030EBC404FEA15481FFA85FC29
:100F5800BEFBF8F9220C08FB19E309FB0CFA42EA7C
:100F680003439A4528D9EB1809F1FF3004D29A4572
:100F780002D9A9F102002B44A3EB0A03A4B2B3FBE4
:100F8800F8F208FB123302FB0CFC44EA0344A445C4
:100F980014D92C1902F1FF3303D2A44501D9931EA9
:100FA8002C44A4EB0C0443EA00401EB1FC4000238F
:100FB80034607360BDE8F08F4846DDE71346F0E71C
:100FC80002B9FFDE8FBBA8EB020301214FEA154EE1
:100FD800AAB2B3FBFEFC200C0EFB1C330CFB02F880
:100FE80040EA0343984563D9EB180CF1FF3004D26B
:100FF800984502D9ACF102002B44A3EB0803A4B234
:10100800B3FBFEFC0EFB1C330CFB02F244EA034468
:10101800A2424FD92C190CF1FF3304D2A24202D9B3
:10102800ACF102032C44A41ABDE7C7F1200C28FA3E
:101038000CF908FA07F320FA0CFCBD404CEA03024D
:101048004FEA154EABB2B9FBFEFC110C0EFB1C901F
:101058000CFB03F841EA0040804504FA07F423D961
:1010680028180CF1FF3104D2804502D9ACF10201F5
:101078002844A0EB080092B2B0FBFEFC0EFB1C005B
:101088000CFB03F842EA004398450FD9EB180CF122
:10109800FF3204D2984502D9ACF102022B44A3EBEB
:1010A800080342EA014191E76146E2E76246F6E752
:1010B8006046A2E76346B6E7434505D90EB1C6E9DF
:1010C80000080021084675E7B3FA83FCBCF1000F5D
:1010D80010D1434501D382420AD8841A68EB03032E
:1010E80001209E46002E68D0C6E9004E002161E727
:1010F8006046F7E7CCF1200E03FA0CF322FA0EF45F
:101108001C4320FA0EF108FA0CF328FA0EFB1943D7
:101118004FEA144902FA0CF5BBFBF9F8A3B209FB34
:1011280018BB0A0C08FB03FA42EA0B42924500FA84
:101138000CF73ED9A21808F1FF3004D2924502D923
:10114800A8F102002244A2EB0A0289B2B2FBF9F824
:1011580009FB182208FB03F341EA024293422AD909
:10116800A21808F1FF3104D2934202D9A8F1020172
:10117800224441EA0040A0FB0598D21A42454B465A
:10118800414602D306D14F4504D2B9EB050368EBBB
:10119800040101388EB1FC1A62EB010707FA0EFE52
:1011A80024FA0CF34EEA030327FA0CF7C6E90037D2
:1011B8009CE74046C7E74146DBE73146FAE60000D0
:1011C800F8B500BFF8BC08BC9E467047F8B500BF2C
:0811D800F8BC08BC9E467047FC
:1011E00000000000000000000102030406070809D7
:0811F0002CFDFF7F010000004F
:0411F800E101000809
:0411FC00BD01000829
:0C12000001000000100000000024F400B9
:0400000508000E7170
:00000001FF
